:020000040800F2
:1000000000800020150900088D0800089B080008E2
:10001000A1080008A7080008AD08000800000000BB
:10002000000000000000000000000000B30800080D
:10003000C108000800000000CF080008DD08000823
:1000400065090008650900086509000865090008D8
:1000500065090008650900086509000865090008C8
:1000600065090008650900086509000865090008B8
:1000700065090008650900086509000865090008A8
:10008000650900086509000865090008000000000E
:1000900000000000000000000000000065090008EA
:1000A0006509000865090008650900086509000878
:1000B00000000000000000000000000065090008CA
:1000C0006509000865090008650900086509000858
:1000D00065090008650900086509000800000000BE
:1000E0006509000865090008000000000000000024
:1000F000000000000000000000000000650900088A
:100100000000000000000000650900080000000079
:100110000000000000000000650900080000000069
:1001200065090008650900086509000865090008F7
:100130006509000800000000000000000000000049
:1001400000000000000000000000000000000000AF
:1001500065090008650900086509000865090008C7
:10016000000000000000000000000000000000008F
:10017000000000000000000000000000000000007F
:100180006509000865090008000000000000000083
:1001900000000000650900080000000000000000E9
:1001A000000000000000000000000000000000004F
:1001B00000000000000000000000000065090008C9
:0801C00065090008650900084B
:1001C80010B5054C237833B9044B13B10448AFF389
:1001D80000800123237010BD0C00002000000000E7
:1001E800BC1F000808B5034B1BB103490348AFF314
:1001F800008008BD0000000010000020BC1F00089F
:1002080053B94AB9002908BF00281CBF4FF0FF3175
:100218004FF0FF3000F072B9ADF1080C6DE904CE73
:1002280000F006F8DDF804E0DDE9022304B07047C9
:100238002DE9F047089E04468846002B4BD18A4298
:10024800154667D9B2FA82F24AB1C2F1200701FA1B
:1002580002F320FA07F7954047EA030894404FEA6B
:10026800154E230CB8FBFEF71FFA85FC0EFB17880A
:1002780043EA084307FB0CF1994209D9EB1807F147
:10028800FF3080F01B81994240F21881023F2B44D5
:100298005B1AA4B2B3FBFEF00EFB103344EA03442E
:1002A80000FB0CFCA44509D92C1900F1FF3380F0A0
:1002B8000781A44540F2048102382C4440EA0740F3
:1002C800A4EB0C0400271EB1D4400023C6E9004368
:1002D8003946BDE8F0878B4209D9002E00F0EB8043
:1002E8000027C6E9000138463946BDE8F087B3FA69
:1002F80083F7002F47D18B4202D3824200F2FA8063
:10030800841A61EB030301209846002EE0D0C6E969
:100318000048DDE702B9FFDEB2FA82F2002A40F0B7
:100328008F80491B4FEA154E1FFA85F80127B1FB4C
:10033800FEFC230C0EFB1C1143EA014308FB0CF1E5
:10034800994207D9EB180CF1FF3002D2994200F21A
:10035800CD808446591AA3B2B1FBFEF00EFB1014EF
:1003680043EA044408FB00F8A04507D92C1900F11A
:10037800FF3302D2A04500F2B6801846A4EB080469
:1003880040EA0C409FE7C7F1200CBB4022FA0CFE64
:100398004EEA030E01FA07F420FA0CF521FA0CF3E1
:1003A8004FEA1E482543B3FBF8F92C0C08FB193318
:1003B8001FFA8EFA44EA034309FB0AF49C4202FA44
:1003C80007F200FA07F10BD91EEB030309F1FF301E
:1003D80080F087809C4240F28480A9F1020973442E
:1003E8001B1BADB2B3FBF8F008FB103345EA03441E
:1003F80000FB0AFAA24508D91EEB040400F1FF33FA
:100408006BD2A24569D90238744440EA0940A0FB7E
:100418000289A4EB0A044C45C2464B4654D351D03A
:10042800002E69D0B1EB0A0564EB030404FA0CFC56
:10043800FD40FC404CEA0505C6E90054002747E7A3
:10044800C2F1200320FA03F7954001FA02F021FADD
:1004580003F34FEA154E3843010CB3FBFEF71FFABE
:1004680085F80EFB173341EA034107FB08F38B427B
:1004780004FA02F407D9691807F1FF3C2FD28B421E
:100488002DD9023F2944CB1A81B2B3FBFEF00EFBF3
:10049800103341EA034100FB08F38B4207D969187E
:1004A80000F1FF3C17D28B4215D902382944C91AEA
:1004B80040EA07473BE73746304609E70746E7E69D
:1004C8001846FBE64145ABD2B8EB020A69EB0E02CF
:1004D80001381346A4E76046E9E7184695E76746FA
:1004E800D1E781467CE702382C4447E7ACF1020C9F
:1004F8002B442FE7384608E73746E9E6704700BF40
:1005080080B500AF00F02CFA00F008F800F0B0F861
:1005180000F084F800F06EF8FEE7000080B594B0B3
:1005280000AF07F11C0334220021184601F03AFD00
:1005380007F1080300221A605A609A60DA601A61AB
:1005480000237B60294B1B6C284A43F080531364BB
:10055800264B1B6C03F080537B607B6800233B6059
:10056800234B1B68224A43F440431360204B1B680B
:1005780003F440433B603B680223FB610123BB62F9
:100588001023FB6202237B630023BB631023FB63FE
:100598004FF4A8733B6404237B640423BB640223E5
:1005A800FB6407F11C03184600F0CCFE0346002B41
:1005B80001D000F0CDF80F23BB600223FB600023BD
:1005C8003B614FF480537B610023BB6107F1080353
:1005D8000221184600F0C4FC0346002B01D000F0AD
:1005E800B7F800BF5037BD4680BD00BF0038024095
:1005F8000070004080B500AF064B074A1A600548F6
:1006080000F005FB0346002B01D000F0A1F800BF65
:1006180080BD00BF280000200030024080B500AF38
:10062800114B124A1A60104B4FF4E1325A600E4BCC
:1006380000229A600C4B0022DA600B4B00221A61F0
:10064800094B0C225A61084B00229A61064B002282
:10065800DA61054801F0B8F80346002B01D000F034
:1006680077F800BF80BD00BF300000200044004084
:1006780080B58AB000AF07F1140300221A605A60EF
:100688009A60DA601A6100233B612D4B1B6B2C4A80
:1006980043F0040313632A4B1B6B03F004033B6111
:1006A8003B690023FB60264B1B6B254A43F0800304
:1006B8001363234B1B6B03F08003FB60FB68002371
:1006C800BB601F4B1B6B1E4A43F0010313631C4B9B
:1006D8001B6B03F00103BB60BB6800237B60184BF6
:1006E8001B6B174A43F002031363154B1B6B03F094
:1006F80002037B607B6800222021124800F016FC70
:100708004FF400537B61104BBB610023FB6107F181
:10071800140319460D4800F097FA20237B61012342
:10072800BB610023FB6100233B6207F114031946F8
:10073800044800F089FA00BF2837BD4680BD00BFD5
:10074800003802400000024000002110000802406A
:1007580080B400AF00BFBD465DF8047B7047000061
:1007680080B483B000AF00237B60104B5B6C0F4AF2
:1007780043F4804353640D4B5B6C03F480437B600C
:100788007B6800233B60094B1B6C084A43F080538D
:100798001364064B1B6C03F080533B603B6800BF3F
:1007A8000C37BD465DF8047B704700BF0038024037
:1007B80080B485B000AF78607B681B680B4A9342B1
:1007C8000DD10023FB600A4B1B6B094A43F480538D
:1007D8001363074B1B6B03F48053FB60FB6800BF7C
:1007E8001437BD465DF8047B704700BF00300240F7
:1007F8000038024080B58AB000AF786007F1140372
:1008080000221A605A609A60DA601A617B681B6875
:10081800194A93422BD100233B61184B1B6C174A92
:1008280043F400331364154B1B6C03F400333B6132
:100838003B690023FB60114B1B6B104A43F001031B
:1008480013630E4B1B6B03F00103FB60FB680C2367
:100858007B610223BB610123FB6103233B62072306
:100868007B6207F114031946054800F0EDF900BF53
:100878002837BD4680BD00BF004400400038024014
:100888000000024080B400AF00BFBD465DF8047BA5
:10089800704780B400AFFEE780B400AFFEE780B4D5
:1008A80000AFFEE780B400AFFEE780B400AF00BF42
:1008B800BD465DF8047B704780B400AF00BFBD46FD
:1008C8005DF8047B704780B400AF00BFBD465DF89B
:1008D800047B704780B500AF00F094F800BF80BD7E
:1008E80080B400AF084BD3F88830074A43F470034C
:1008F800C2F88830044B4FF000629A6000BFBD46D2
:100908005DF8047B704700BF00ED00E0DFF834D0ED
:10091800002103E00C4B5B58435004310B480C4B4F
:1009280042189A42F6D30B4A02E0002342F8043BED
:10093800094B9A42F9D3FFF7D3FF01F00FFBFFF7FA
:10094800DFFD704700800020FC1F00080000002029
:100958000C0000200C00002074000020FEE70000BE
:1009680080B500AF0E4B1B680D4A43F4007313604B
:100978000B4B1B680A4A43F480631360084B1B68DF
:10098800074A43F480731360032000F00DF9002038
:1009980000F008F8FFF7E4FE0023184680BD00BF0A
:1009A800003C024080B582B000AF7860124B1A68F4
:1009B800124B1B7819464FF47A73B3FBF1F3B2FB71
:1009C800F3F3184600F017F90346002B01D0012372
:1009D8000EE07B680F2B0AD8002279684FF0FF30B1
:1009E80000F0EDF8064A7B681360002300E001235D
:1009F80018460837BD4680BD0000002008000020CA
:100A08000400002080B400AF064B1B781A46064B42
:100A18001B681344044A136000BFBD465DF8047B9D
:100A2800704700BF080000207000002080B400AFAD
:100A3800034B1B681846BD465DF8047B704700BF32
:100A48007000002080B485B000AF78607B6803F048
:100A58000703FB600C4BDB68BB60BA684FF6FF030B
:100A68001340BB60FB681A02BB68134343F0BF63C3
:100A780043F40033BB60044ABB68D36000BF14373B
:100A8800BD465DF8047B704700ED00E080B400AF20
:100A9800044BDB681B0A03F007031846BD465DF8E4
:100AA800047B704700ED00E080B483B000AF0346DC
:100AB8003960FB7197F90730002B0ADB3B68DAB223
:100AC8000C4997F907301201D2B20B4483F800237E
:100AD8000AE03B68DAB20849FB7903F00F03043BEC
:100AE8001201D2B20B441A7600BF0C37BD465DF82E
:100AF800047B704700E100E000ED00E080B489B0BD
:100B080000AFF860B9607A60FB6803F00703FB6127
:100B1800FB69C3F10703042B28BF0423BB61FB69EE
:100B28000433062B02D9FB69033B00E000237B61F9
:100B38004FF0FF32BB6902FA03F3DA43BB681A408D
:100B48007B699A404FF0FF317B6901FA03F3D9437F
:100B58007B680B40134318462437BD465DF8047B79
:100B68007047000080B582B000AF78607B68013BB9
:100B7800B3F1807F01D301230FE00A4A7B68013B70
:100B880053600F214FF0FF30FFF78EFF054B002217
:100B98009A60044B07221A60002318460837BD469E
:100BA80080BD00BF10E000E080B582B000AF786083
:100BB8007868FFF747FF00BF0837BD4680BD80B59E
:100BC80086B000AF0346B9607A60FB7300237B618F
:100BD800FFF75CFF78617A68B9687869FFF78EFF7C
:100BE800024697F90F3011461846FFF75DFF00BF20
:100BF8001837BD4680BD80B582B000AF7860786890
:100C0800FFF7B0FF034618460837BD4680BD80B5DC
:100C180082B000AF78607B68002B01D101230EE021
:100C28007B685B79DBB2002B05D17B6800221A71E7
:100C38007868FFF7BDFD7B6801225A7100231846CA
:100C48000837BD4680BD000080B489B000AF786029
:100C5800396000237B6100233B610023BB610023D3
:100C6800FB614DE10122FB6902FA03F37B613B68FA
:100C78001B687A6913403B613A697B699A4240F084
:100C88003C813B685B68012B0BD03B685B68022B9F
:100C980007D03B685B68112B03D03B685B68122B5D
:100CA80030D17B689B68BB61FB695B00032202FA59
:100CB80003F3DB43BA691340BB613B68DA68FB693D
:100CC8005B0002FA03F3BA691343BB617B68BA6934
:100CD8009A607B685B68BB610122FB6902FA03F3D7
:100CE800DB43BA691340BB613B685B681B0903F0CF
:100CF8000102FB6902FA03F3BA691343BB617B681B
:100D0800BA695A607B68DB68BB61FB695B000322D8
:100D180002FA03F3DB43BA691340BB613B689A6884
:100D2800FB695B0002FA03F3BA691343BB617B6892
:100D3800BA69DA603B685B68022B03D03B685B6882
:100D4800122B23D1FB69DA087B68083253F822306A
:100D5800BB61FB6903F007039B000F2202FA03F350
:100D6800DB43BA691340BB613B681A69FB6903F04E
:100D780007039B0002FA03F3BA691343BB61FB69DB
:100D8800DA087B680832B96943F822107B681B6867
:100D9800BB61FB695B00032202FA03F3DB43BA6918
:100DA8001340BB613B685B6803F00302FB695B00AF
:100DB80002FA03F3BA691343BB617B68BA691A6024
:100DC8003B685B6803F08053002B00F0968000239B
:100DD800FB60504B5B6C4F4A43F4804353644D4B6C
:100DE8005B6C03F48043FB60FB684B4AFB699B0820
:100DF800023352F82330BB61FB6903F003039B0005
:100E08000F2202FA03F3DB43BA691340BB617B6824
:100E1800424A93420DD07B68414A934207D07B688F
:100E2800404A934201D1022304E0072302E0012350
:100E380000E00023FA6902F0030292009340BA69C5
:100E48001343BB613449FB699B080233BA6941F813
:100E58002320354B1B68BB613B69DB43BA691340F0
:100E6800BB613B685B6803F48033002B03D0BA692D
:100E78003B691343BB612C4ABB6913602A4B5B680F
:100E8800BB613B69DB43BA691340BB613B685B6884
:100E980003F40033002B03D0BA693B691343BB61E9
:100EA800214ABB695360204B9B68BB613B69DB43AC
:100EB800BA691340BB613B685B6803F48013002B7D
:100EC80003D0BA693B691343BB61174ABB69936096
:100ED800154BDB68BB613B69DB43BA691340BB61F7
:100EE8003B685B6803F40013002B03D0BA693B69C5
:100EF8001343BB610C4ABB69D360FB690133FB61D7
:100F0800FB690F2B7FF6AEAE00BF2437BD465DF8F8
:100F1800047B70470038024000380140000002405E
:100F28000004024000080240003C014080B483B045
:100F380000AF78600B467B8013467B707B78002B74
:100F480003D07A887B689A6103E07B881A047B68FF
:100F58009A6100BF0C37BD465DF8047B70470000FE
:100F680080B584B000AF786039607B68002B01D110
:100F78000123CCE0684B1B6803F00F033A689A42E0
:100F88000CD9654B3A68D2B21A70634B1B6803F0F0
:100F98000F033A689A4201D00123B8E07B681B68C6
:100FA80003F00203002B20D07B681B6803F00403C6
:100FB800002B05D0594B9B68584A43F4E053936083
:100FC8007B681B6803F00803002B05D0534B9B6814
:100FD800524A43F460439360504B9B6823F0F002FD
:100FE8007B689B684D4913438B607B681B6803F0E3
:100FF8000103002B44D07B685B68012B07D1474B6A
:101008001B6803F40033002B19D101237FE07B68B0
:101018005B68022B03D07B685B68032B07D13F4BCF
:101028001B6803F00073002B09D101236FE03B4BD1
:101038001B6803F00203002B01D1012367E0374B43
:101048009B6823F003027B685B68344913438B6019
:10105800FFF7ECFCF8600AE0FFF7E8FC0246FB68E3
:10106800D31A41F28832934201D903234FE02B4B24
:101078009B6803F00C027B685B689B009A42EBD18B
:10108800254B1B6803F00F033A689A420CD2224B97
:101098003A68D2B21A70204B1B6803F00F033A6803
:1010A8009A4201D0012332E07B681B6803F00403F5
:1010B800002B08D0194B9B6823F4E0527B68DB684F
:1010C800164913438B607B681B6803F00803002BE9
:1010D80009D0124B9B6823F460427B681B69DB00D4
:1010E8000E4913438B6000F021F801460B4B9B68B7
:1010F8001B0903F00F030A4AD35C21FA03F3094AD8
:101108001360094B1B681846FFF74CFC0023184670
:101118001037BD4680BD00BF003C02400038024089
:10112800D41F00080000002004000020F0B585B09E
:1011380000AF00237B600023FB6000233B6000239B
:10114800BB60634B9B6803F00C03042B07D0082B90
:1011580008D0002B40F0B4805E4BBB60B3E05E4B20
:10116800BB60B0E05A4B5B6803F03F037B60584BB1
:101178005B6803F48003002B4AD0554B5B689B09DE
:101188004FF0000440F2FF114FF0000203EA01059E
:1011980004EA0206294632464FF000034FF00004E5
:1011A800540144EAD1644B0119462246491B62EBBB
:1011B80006024FF000034FF00004940144EA9164E2
:1011C8008B015B1A64EB02044FF000014FF0000240
:1011D800E20042EA5372D9000B4614465B1944EB0D
:1011E80006044FF000014FF00002620242EAD352B7
:1011F80059020B461446184621467B684FF00004F6
:101208001A462346FEF7FCFF03460C46FB6049E0FE
:101218002F4B5B689B094FF0000440F2FF114FF021
:10122800000203EA010504EA0206294632464FF0A5
:1012380000034FF00004540144EAD1644B011946FD
:101248002246491B62EB06024FF000034FF00004F0
:10125800940144EA91648B015B1A64EB02044FF039
:1012680000014FF00002E20042EA5372D9000B4637
:1012780014465B1944EB06044FF000014FF00002DE
:10128800A20242EA935299020B4614461846214696
:101298007B684FF000041A462346FEF7B1FF034669
:1012A8000C46FB600A4B5B681B0C03F0030301331D
:1012B8005B003B60FA683B68B2FBF3F3BB6002E09B
:1012C800044BBB6000BFBB6818461437BD46F0BD71
:1012D800003802400024F40000127A0080B400AF05
:1012E800034B1B681846BD465DF8047B704700BF7A
:1012F8000000002080B500AFFFF7F0FF0146054B66
:101308009B689B0A03F00703034AD35C21FA03F3A3
:10131800184680BD00380240E41F000880B500AFC1
:10132800FFF7DCFF0146054B9B685B0B03F00703E7
:10133800034AD35C21FA03F3184680BD0038024003
:10134800E41F000880B586B000AF786000233B61D9
:101358007B681B6803F00103002B75D0A24B9B68C8
:1013680003F00C03042B0CD09F4B9B6803F00C0379
:10137800082B12D19C4B5B6803F48003B3F5800FF4
:101388000BD1994B1B6803F40033002B5BD07B68AF
:101398005B68002B57D101230BE27B685B68B3F5D0
:1013A800803F06D1904B1B688F4A43F4803313600B
:1013B8001DE07B685B68B3F5A02F0CD18A4B1B68D6
:1013C800894A43F480231360874B1B68864A43F499
:1013D800803313600BE0844B1B68834A23F480330B
:1013E8001360814B1B68804A23F4802313607B6859
:1013F8005B68002B13D0FFF719FB386108E0FFF793
:1014080015FB02463B69D31A642B01D90323D0E1AB
:10141800754B1B6803F40033002BF0D014E0FFF782
:1014280005FB386108E0FFF701FB02463B69D31A68
:10143800642B01D90323BCE16B4B1B6803F4003315
:10144800002BF0D100E000BF7B681B6803F00203AB
:10145800002B63D0644B9B6803F00C03002B0BD06C
:10146800614B9B6803F00C03082B1CD15E4B5B6837
:1014780003F48003002B16D15B4B1B6803F00203B7
:10148800002B05D07B68DB68012B01D0012390E19C
:10149800554B1B6823F0F8027B681B69DB00524937
:1014A80013430B603AE07B68DB68002B20D04F4B7E
:1014B80001221A60FFF7BAFA386108E0FFF7B6FAB6
:1014C80002463B69D31A022B01D9032371E1464B2B
:1014D8001B6803F00203002BF0D0434B1B6823F07A
:1014E800F8027B681B69DB003F4913430B6015E07A
:1014F8003E4B00221A60FFF799FA386108E0FFF7BF
:1015080095FA02463B69D31A022B01D9032350E10D
:10151800354B1B6803F00203002BF0D17B681B6876
:1015280003F00803002B30D07B685B69002B16D0D2
:101538002F4B01221A60FFF779FA386108E0FFF7AC
:1015480075FA02463B69D31A022B01D9032330E10D
:10155800254B5B6F03F00203002BF0D015E0244B02
:1015680000221A60FFF762FA386108E0FFF75EFAB6
:1015780002463B69D31A022B01D9032319E11A4BFE
:101588005B6F03F00203002BF0D17B681B6803F04C
:101598000403002B00F09F800023FB75124B1B6C8B
:1015A80003F08053002B0FD10023FB600E4B1B6C04
:1015B8000D4A43F0805313640B4B1B6C03F08053AC
:1015C800FB60FB680123FB750A4B1B6803F48073FF
:1015D800002B20D1074B1B68064A43F48073136025
:1015E800FFF724FA386110E0003802400000474253
:1015F800800E474200700040FFF718FA02463B6928
:10160800D31A022B01D90323D3E06C4B1B6803F4D4
:101618008073002BF0D07B689B68012B06D1684B48
:101628001B6F674A43F0010313671CE07B689B68E4
:10163800052B0CD1624B1B6F614A43F004031367FF
:101648005F4B1B6F5E4A43F0010313670BE05C4B73
:101658001B6F5B4A23F001031367594B1B6F584AF2
:1016680023F0040313677B689B68002B15D0FFF7F2
:10167800DDF938610AE0FFF7D9F902463B69D31A68
:1016880041F28832934201D9032392E04C4B1B6FFD
:1016980003F00203002BEED014E0FFF7C7F938611E
:1016A8000AE0FFF7C3F902463B69D31A41F28832D0
:1016B800934201D903237CE0414B1B6F03F00203E3
:1016C800002BEED1FB7D012B05D13D4B1B6C3C4A19
:1016D80023F0805313647B689B69002B68D0384BD8
:1016E8009B6803F00C03082B60D07B689B69022B76
:1016F80045D1344B00221A60FFF798F9386108E0A9
:10170800FFF794F902463B69D31A022B01D9032348
:101718004FE02B4B1B6803F00073002BF0D17B6864
:10172800DA697B681B6A1A437B685B6A9B011A4308
:101738007B689B6A5B08013B1B041A437B68DB6A76
:101748001B061A437B681B6B1B071D4913434B6021
:101758001C4B01221A60FFF769F9386108E0FFF7AE
:1017680065F902463B69D31A022B01D9032320E00D
:10177800134B1B6803F00073002BF0D018E0114BDB
:1017880000221A60FFF752F9386108E0FFF74EF9B6
:1017980002463B69D31A022B01D9032309E0084BFF
:1017A8001B6803F00073002BF0D101E0012300E077
:1017B800002318461837BD4680BD00BF00700040A2
:1017C800003802406000474280B582B000AF7860C0
:1017D8007B68002B01D101233FE07B6893F8393007
:1017E800DBB2002B06D17B68002283F838207868AA
:1017F800FFF700F87B68242283F839207B681B6890
:10180800DA687B681B6822F40052DA60786800F0B6
:1018180029F87B681B681A697B681B6822F4904268
:101828001A617B681B685A697B681B6822F02A0268
:101838005A617B681B68DA687B681B6842F400524F
:10184800DA607B680022DA637B68202283F839201B
:101858007B68202283F83A20002318460837BD46C3
:1018680080BD00002DE9F04F85B000AF78607B683F
:101878001B681B6923F440517B68DA687B681B6826
:101888000A431A617B689A687B681B691A437B68FC
:101898005B691A437B68DB691343FB607B681B68E1
:1018A800DB6823F4164323F00C037A681268F9689E
:1018B8000B43D3607B681B685B6923F440717B68CA
:1018C8009A697B681B680A435A617B68DB69B3F5D0
:1018D800004F40F08B817B681B68C14A934205D05A
:1018E8007B681B68BF4A934240F0BD80FFF716FD36
:1018F800B860BB681D464FF00006A846B14618EB15
:10190800080349EB09049846A14618EB050849EB7A
:1019180006094FF000014FF000024FEAC90242EAFF
:1019280058724FEAC8018846914618EB050049EB02
:1019380006017B685B681D464FF000066B1946EB95
:1019480006041A462346FEF75BFC03460C461A4675
:10195800A54BA3FB02235B094FEA0318BB681D468E
:101968004FF00006A946B24619EB09034AEB0A04F0
:101978009946A24619EB05094AEB060A4FF0000101
:101988004FF000024FEACA0242EA59724FEAC9010F
:101998008946924619EB05004AEB06017B685B68AD
:1019A8001D464FF000066B1946EB06041A462346FF
:1019B800FEF726FC03460C461A468B4BA3FB021384
:1019C8005B09642101FB03F3D31ADB003233864A37
:1019D800A2FB03235B095B0003F4F8739844BB681C
:1019E8001D464FF00006A946B24619EB09034AEB1B
:1019F8000A049946A24619EB05094AEB060A4FF074
:101A080000014FF000024FEACA0242EA59724FEA57
:101A1800C9018946924619EB05004AEB06017B6825
:101A28005B681D464FF000066B1946EB06041A4624
:101A38002346FEF7E5FB03460C461A466A4BA3FB12
:101A480002135B09642101FB03F3D31ADB00323371
:101A5800654AA2FB03235B0903F007027B681B6846
:101A680042449A606FE2FFF745FCB860BB681D46C8
:101A78004FF00006A846B14618EB080349EB0904E5
:101A88009846A14618EB050849EB06094FF00001F6
:101A98004FF000024FEAC90242EA58724FEAC80101
:101AA8008846914618EB050049EB06017B685B68A0
:101AB8001D464FF000066B1946EB06041A462346EE
:101AC800FEF79EFB03460C461A46474BA3FB022330
:101AD8005B094FEA0318BB681D464FF00006A9468C
:101AE800B24619EB09034AEB0A049946A24619EBD8
:101AF80005094AEB060A4FF000014FF000024FEAD1
:101B0800CA0242EA59724FEAC9018946924619EB5C
:101B180005004AEB06017B685B681D464FF000062E
:101B28006B1946EB06041A462346FEF769FB034683
:101B38000C461A462C4BA3FB02135B09642101FBDC
:101B480003F3D31ADB003233274AA2FB03235B09D2
:101B58005B0003F4F8739844BB681D464FF0000619
:101B6800A946B24619EB09034AEB0A049946A2466C
:101B780019EB05094AEB060A4FF000014FF0000285
:101B88004FEACA0242EA59724FEAC90189469246A7
:101B980019EB05004AEB06017B685B681D464FF0B0
:101BA80000066B1946EB06041A462346FEF728FB87
:101BB80003460C461A460C4BA3FB02135B0964212F
:101BC80001FB03F3D31ADB003233074AA2FB0323DA
:101BD8005B0903F007027B681B6842449A60B2E124
:101BE80000100140001401401F85EB517B681B6801
:101BF800D74A934205D07B681B68D64A934240F087
:101C0800D180FFF78BFBB860BB689A464FF0000B9A
:101C1800D046D94618EB080349EB09049846A14673
:101C280018EB0A0849EB0B094FF000014FF00002CE
:101C38004FEAC90242EA58724FEAC80188469146FB
:101C48001AEB08054BEB09067B685B6819464FF0F1
:101C580000024FF000034FF00004940044EA91742E
:101C68008B001A46234628463146FEF7C9FA034632
:101C78000C461A46B84BA3FB02235B094FEA03182C
:101C8800BB689B464FF0000CD946E24619EB0903A6
:101C98004AEB0A049946A24619EB0B094AEB0C0ACF
:101CA8004FF000014FF000024FEACA0242EA5972AF
:101CB8004FEAC901894692461BEB09054CEB0A0617
:101CC8007B685B6819464FF000024FF000034FF045
:101CD8000004940044EA91748B001A46234628466F
:101CE8003146FEF78DFA03460C461A469A4BA3FB7B
:101CF80002135B09642101FB03F3D31A1B0132337E
:101D0800954AA2FB03235B0903F0F0039844BB68E0
:101D18009B464FF0000CD946E24619EB09034AEB03
:101D28000A049946A24619EB0B094AEB0C0A4FF034
:101D380000014FF000024FEACA0242EA59724FEA24
:101D4800C901894692461BEB09054CEB0A067B68DC
:101D58005B6819464FF000024FF000034FF0000493
:101D6800940044EA91748B001A462346284631466B
:101D7800FEF746FA03460C461A46774BA3FB0213B6
:101D88005B09642101FB03F3D31A1B013233724A46
:101D9800A2FB03235B0903F00F027B681B68424424
:101DA8009A60D0E0FFF7A6FAB860BB689A464FF091
:101DB800000BD046D94618EB080349EB09049846AE
:101DC800A14618EB0A0849EB0B094FF000014FF048
:101DD80000024FEAC90242EA58724FEAC80188462F
:101DE80091461AEB08054BEB09067B685B681946B8
:101DF8004FF000024FF000034FF00004940044EA53
:101E080091748B001A46234628463146FEF7F8F9A6
:101E180003460C461A46504BA3FB02235B094FEAC4
:101E28000318BB689B464FF0000CD946E24619EBF5
:101E380009034AEB0A049946A24619EB0B094AEB37
:101E48000C0A4FF000014FF000024FEACA0242EAC2
:101E580059724FEAC901894692461BEB09054CEBBA
:101E68000A067B685B6819464FF000024FF00003D2
:101E78004FF00004940044EA91748B001A462346FC
:101E880028463146FEF7BCF903460C461A46324B43
:101E9800A3FB02135B09642101FB03F3D31A1B01A3
:101EA80032332D4AA2FB03235B0903F0F003984465
:101EB800BB689B464FF0000CD946E24619EB090374
:101EC8004AEB0A049946A24619EB0B094AEB0C0A9D
:101ED8004FF000014FF000024FEACA0242EA59727D
:101EE8004FEAC901894692461BEB09054CEB0A06E5
:101EF8007B685B6819464FF000024FF000034FF013
:101F08000004940044EA91748B001A46234628463C
:101F18003146FEF775F903460C461A460E4BA3FBED
:101F280002135B09642101FB03F3D31A1B0132334B
:101F3800094AA2FB03235B0903F00F027B681B68B5
:101F480042449A60FFE700BF1437BD46BDE8F08FF2
:101F580000100140001401401F85EB5170B50D4E73
:101F68000D4CA41BA4100025A54209D10B4E0C4C06
:101F780000F020F8A41BA4100025A54205D170BDCF
:101F880056F8253098470135EEE756F8253098473A
:101F98000135F2E7F41F0008F41F0008F41F0008D9
:101FA800F81F000802440346934200D1704703F823
:101FB800011BF9E7F8B500BFF8BC08BC9E4670479E
:0C1FC800F8B500BFF8BC08BC9E4670478E
:101FD40000000000000000000102030406070809D5
:081FE4000000000001020304EB
:081FEC004CE2FF7F0100000040
:041FF400ED010008F3
:041FF800C901000813
:0C1FFC000024F4001000000001000000B0
:0400000508000915D1
:00000001FF
