:020000040800F2
:100000000080002041100008390F0008470F000849
:100010004D0F0008530F0008590F000800000000A2
:100020000000000000000000000000005F0F00085A
:100030006D0F0008000000007B0F0008890F00080A
:10004000911000089110000891100008911000080C
:1000500091100008911000089110000891100008FC
:1000600091100008911000089110000891100008EC
:1000700091100008911000089110000891100008DC
:100080009110000891100008911000080000000075
:1000900000000000000000000000000091100008B7
:1000A00091100008911000089110000891100008AC
:1000B0000000000000000000000000009110000897
:1000C000911000089110000891100008911000088C
:1000D00091100008950F0008A90F0008000000000B
:1000E00091100008911000080000000000000000BE
:1000F0000000000000000000000000009110000857
:100100000000000000000000911000080000000046
:100110000000000000000000911000080000000036
:10012000911000089110000891100008911000082B
:100130009110000800000000000000000000000016
:1001400000000000000000000000000000000000AF
:1001500091100008911000089110000891100008FB
:10016000000000000000000000000000000000008F
:10017000000000000000000000000000000000007F
:10018000911000089110000800000000000000001D
:1001900000000000911000080000000000000000B6
:1001A000000000000000000000000000000000004F
:1001B0000000000000000000000000009110000896
:0801C0009110000891100008E5
:1001D00010B5054C237833B9044B13B10448AFF381
:1001E00000800123237010BD7C000020000000006F
:1001F000B037000808B5034B1BB103490348AFF300
:10020000008008BD0000000080000020B03700081A
:10021000034613F8012B002AFBD1181A0138704746
:1002200001F0FF01102A2BDB10F0070F08D010F8A7
:10023000013B013A8B422DD010F0070F42B3F6D1AB
:10024000F0B441EA012141EA014122F007047FF0C4
:1002500000070023F0E80256083C85EA010586EA1B
:10026000010685FA47F5A3FA87F586FA47F6A5FA57
:1002700087F68EB9EED1F0BC01F0FF0102F0070263
:1002800032B110F8013B013A83EA010313B1F8D10E
:100290000020704701387047002D06BF35460338EF
:1002A000073815F0010F07D1013015F4807F02BF28
:1002B000013015F4C03F0130F0BC0138704700BF79
:1002C00053B94AB9002908BF00281CBF4FF0FF31BD
:1002D0004FF0FF3000F072B9ADF1080C6DE904CEBB
:1002E00000F006F8DDF804E0DDE9022304B0704711
:1002F0002DE9F047089E04468846002B4BD18A42E0
:10030000154667D9B2FA82F24AB1C2F1200701FA62
:1003100002F320FA07F7954047EA030894404FEAB2
:10032000154E230CB8FBFEF71FFA85FC0EFB178851
:1003300043EA084307FB0CF1994209D9EB1807F18E
:10034000FF3080F01B81994240F21881023F2B441C
:100350005B1AA4B2B3FBFEF00EFB103344EA034475
:1003600000FB0CFCA44509D92C1900F1FF3380F0E7
:100370000781A44540F2048102382C4440EA07403A
:10038000A4EB0C0400271EB1D4400023C6E90043AF
:100390003946BDE8F0878B4209D9002E00F0EB808A
:1003A0000027C6E9000138463946BDE8F087B3FAB0
:1003B00083F7002F47D18B4202D3824200F2FA80AA
:1003C000841A61EB030301209846002EE0D0C6E9B1
:1003D0000048DDE702B9FFDEB2FA82F2002A40F0FF
:1003E0008F80491B4FEA154E1FFA85F80127B1FB94
:1003F000FEFC230C0EFB1C1143EA014308FB0CF12D
:10040000994207D9EB180CF1FF3002D2994200F261
:10041000CD808446591AA3B2B1FBFEF00EFB101436
:1004200043EA044408FB00F8A04507D92C1900F161
:10043000FF3302D2A04500F2B6801846A4EB0804B0
:1004400040EA0C409FE7C7F1200CBB4022FA0CFEAB
:100450004EEA030E01FA07F420FA0CF521FA0CF328
:100460004FEA1E482543B3FBF8F92C0C08FB19335F
:100470001FFA8EFA44EA034309FB0AF49C4202FA8B
:1004800007F200FA07F10BD91EEB030309F1FF3065
:1004900080F087809C4240F28480A9F10209734475
:1004A0001B1BADB2B3FBF8F008FB103345EA034465
:1004B00000FB0AFAA24508D91EEB040400F1FF3341
:1004C0006BD2A24569D90238744440EA0940A0FBC6
:1004D0000289A4EB0A044C45C2464B4654D351D082
:1004E000002E69D0B1EB0A0564EB030404FA0CFC9E
:1004F000FD40FC404CEA0505C6E90054002747E7EB
:10050000C2F1200320FA03F7954001FA02F021FA24
:1005100003F34FEA154E3843010CB3FBFEF71FFA05
:1005200085F80EFB173341EA034107FB08F38B42C2
:1005300004FA02F407D9691807F1FF3C2FD28B4265
:100540002DD9023F2944CB1A81B2B3FBFEF00EFB3A
:10055000103341EA034100FB08F38B4207D96918C5
:1005600000F1FF3C17D28B4215D902382944C91A31
:1005700040EA07473BE73746304609E70746E7E6E4
:100580001846FBE64145ABD2B8EB020A69EB0E0216
:1005900001381346A4E76046E9E7184695E7674641
:1005A000D1E781467CE702382C4447E7ACF1020CE6
:1005B0002B442FE7384608E73746E9E6704700BF87
:1005C00080B582B000AF786039603B689AB24FF076
:1005D000FF337968034801F06EFD00BF0837BD4660
:1005E00080BD00BFAC0000200FB480B5ADF57C7DB0
:1005F00000AF07F57F723B1D1A603B1D07F1080035
:100600001A68D7F8F81302F0E3FC07F1080318465C
:10061000FFF7FEFD03469AB207F108014FF0FF33E2
:10062000054801F048FD00BF07F57C77BD46BDE8F1
:10063000804004B0704700BFD404002080B500AFF4
:100640000348FFF7D1FF00F05FF800BF80BD00BF97
:10065000C837000880B584B000AF0F48FFF7C4FF6B
:100660000E4B1B68FB60F9680D48FFF7BDFFFB6888
:100670003B603B6883F308880A4B1B68BB60BB6820
:100680007B6079680848FFF7AFFF7B68984700BF39
:100690001037BD4680BD00BFF83700080080000855
:1006A00020380008048000083C38000880B500AFFE
:1006B00000F0F0FC00F09AF800F06CF900F040F95E
:1006C00000F014F900F0FEF80B48FFF78DFF4FF42F
:1006D00000510A4801F03CF80346002B05D10848B8
:1006E000FFF782FFFFF7AAFFF1E70648FFF77CFF5D
:1006F000FFF7B0FFEBE700BF6438000800080240D6
:1007000094380008BC38000880B582B000AF0023E0
:10071000FB714FF47A720021304802F03BFC4FF03D
:10072000FF3301222D492E4801F05EFD2B4B1B7833
:10073000FB71FB799AB24FF0FF332A49284801F048
:1007400053FD264B5B78513B0A2B41D801A252F84E
:1007500023F000BF810700088907000891070008FF
:1007600099070008A1070008A9070008B1070008B9
:10077000B9070008D1070008C1070008C907000829
:10078000164800F07FF927E0144800F0C3F923E091
:10079000124800F0F9F91FE0104800F03FFA1BE0A2
:1007A0000E4800F045FA17E00C4800F04BFA13E051
:1007B0000A4800F051FA0FE0084800F057FA0BE041
:1007C000064800F05DFA07E0044800F063FA03E031
:1007D0000548FFF709FF00BF9BE700BFEC000020C2
:1007E000AC000020ED000020DC38000880B594B09B
:1007F00000AF07F11C0334220021184602F0CAFBA7
:1008000007F1080300221A605A609A60DA601A61E0
:1008100000237B60294B1B6C284A43F080531364F0
:10082000264B1B6C03F080537B607B6800233B608E
:10083000234B1B68224A43F440431360204B1B6840
:1008400003F440433B603B680223FB610123BB622E
:100850001023FB6202237B630023BB631023FB6333
:100860004FF4A8733B6404237B640423BB6402231A
:10087000FB6407F11C03184601F08EF90346002BB8
:1008800001D000F0F7F80F23BB600223FB600023C8
:100890003B614FF480537B610023BB6107F1080388
:1008A0000221184600F086FF0346002B01D000F01D
:1008B000E1F800BF5037BD4680BD00BF00380240A0
:1008C0000070004080B500AF064B074A1A6005482B
:1008D00000F063FD0346002B01D000F0CBF800BF11
:1008E00080BD00BFA40000200030024080B500AFF2
:1008F000114B124A1A60104B4FF4E1325A600E4B02
:1009000000229A600C4B0022DA600B4B00221A6125
:10091000094B0C225A61084B00229A61064B0022B7
:10092000DA61054801F07AFB0346002B01D000F0A4
:10093000A1F800BF80BD00BFAC0000200010014046
:1009400080B500AF114B124A1A60104B4FF4E132E0
:100950005A600E4B00229A600C4B0022DA600B4B5F
:1009600000221A61094B0C225A61084B00229A613D
:10097000064B0022DA61054801F050FB0346002BCC
:1009800001D000F077F800BF80BD00BFD404002084
:100990000044004080B58AB000AF07F11403002284
:1009A0001A605A609A60DA601A6100233B612D4B2D
:1009B0001B6B2C4A43F0040313632A4B1B6B03F09D
:1009C00004033B613B690023FB60264B1B6B254AFC
:1009D00043F080031363234B1B6B03F08003FB6026
:1009E000FB680023BB601F4B1B6B1E4A43F00103D7
:1009F00013631C4B1B6B03F00103BB60BB6800233C
:100A00007B60184B1B6B174A43F002031363154BB3
:100A10001B6B03F002037B607B68002220211248DD
:100A200000F0AEFE4FF400537B61104BBB6100231E
:100A3000FB6107F1140319460D4800F017FD202350
:100A40007B610123BB610023FB6100233B6207F153
:100A500014031946044800F009FD00BF2837BD46BD
:100A600080BD00BF0038024000000240000021109D
:100A70000008024080B400AF00BFBD465DF8047BB3
:100A80007047000080B586B000AF78601D48FFF762
:100A9000ABFD7B681B7801337B617B69043B7A6823
:100AA00013441B683B617B69043B3A6919467868CB
:100AB00000F026F90346002B1AD11348FFF794FDE6
:100AC0007B681B780121184600F0EEF800F044F92D
:100AD0000346FB73FB7B1946FB7B1A460B48FFF76B
:100AE00083FD07F10F0301211846FFF769FD04E0BC
:100AF0000748FFF779FD00F0F1F800BF1837BD4651
:100B000080BD00BF1839000840390008603900086E
:100B10007C39000880B584B000AF78601648FFF7D4
:100B200063FD7B681B780133FB60FB68043B7A68DC
:100B300013441B68BB60FB68043BBA6819467868BD
:100B400000F0DEF80346002B0DD10C48FFF74CFDFA
:100B50007B681B780B21184600F0A6F80B2108488B
:100B6000FFF72EFD04E00748FFF73EFD00F0B6F862
:100B700000BF1037BD4680BD98390008C039000855
:100B8000000000207C39000880B586B000AF786096
:100B90000023FB811D48FFF727FD7B681B7801338D
:100BA0007B617B69043B7A6813441B683B617B690A
:100BB000043B3A691946786800F0A2F80346002B16
:100BC0001AD11348FFF710FD7B681B780B211846DC
:100BD00000F06AF800F0C8F80346FB81FB8919466B
:100BE000FB891A460B48FFF7FFFC07F10E030221B1
:100BF0001846FFF7E5FC04E00748FFF7F5FC00F0B6
:100C00006DF800BF1837BD4680BD00BFE039000851
:100C1000C0390008083A00087C39000880B483B065
:100C200000AF786000BF0C37BD465DF8047B7047AD
:100C300080B483B000AF786000BF0C37BD465DF86C
:100C4000047B704780B483B000AF786000BF0C377E
:100C5000BD465DF8047B704780B483B000AF786018
:100C600000BF0C37BD465DF8047B704780B483B08D
:100C700000AF786000BF0C37BD465DF8047B70475D
:100C800080B483B000AF786000BF0C37BD465DF81C
:100C9000047B704780B483B000AF786000BF0C372E
:100CA000BD465DF8047B704780B584B000AF034655
:100CB0000A46FB711346BB71A5233B73BB797B735B
:100CC00007F10C014FF0FF330222034801F0F3F962
:100CD00000BF1037BD4680BDAC00002080B582B09B
:100CE00000AF7E23FB71F91D4FF0FF330122034853
:100CF00001F0E1F900BF0837BD4680BDAC0000201F
:100D000080B588B000AFF860B9607A60FF23FB61FE
:100D10000023BB610FE0FA68BB6913441B787B6159
:100D200007F11403012219460A4800F052FBF8614A
:100D3000BB690133BB61BA69BB689A42EBD3FA69FC
:100D40007B689A4201D1002300E001231846203736
:100D5000BD4680BDA400002080B400AF102318461B
:100D6000BD465DF8047B704780B483B000AF064B8E
:100D70001B689BB2C3F30B03FB80FB8818460C3740
:100D8000BD465DF8047B7047002004E080B483B06A
:100D900000AF00237B60104B5B6C0F4A43F4804331
:100DA00053640D4B5B6C03F480437B607B680023D2
:100DB0003B60094B1B6C084A43F080531364064B9D
:100DC0001B6C03F080533B603B6800BF0C37BD4693
:100DD0005DF8047B704700BF0038024080B485B0E6
:100DE00000AF78607B681B680B4A93420DD10023EB
:100DF000FB600A4B1B6B094A43F480531363074B98
:100E00001B6B03F48053FB60FB6800BF1437BD46C7
:100E10005DF8047B704700BF00300240003802409C
:100E200080B58CB000AF786007F11C0300221A6017
:100E30005A609A60DA601A617B681B683A4A93428A
:100E400035D10023BB61394B5B6C384A43F010034A
:100E50005364364B5B6C03F01003BB61BB6900232A
:100E60007B61324B1B6B314A43F0010313632F4B01
:100E70001B6B03F001037B617B694FF4C063FB6173
:100E800002233B6201237B620323BB620723FB62D5
:100E900007F11C031946264800F0E8FA0022002159
:100EA000252000F044FA252000F05DFA38E07B6848
:100EB0001B68204A934233D100233B611B4B1B6CC0
:100EC0001A4A43F400331364184B1B6C03F40033C9
:100ED0003B613B690023FB60144B1B6B134A43F0DF
:100EE00001031363114B1B6B03F00103FB60FB68F1
:100EF0000C23FB6102233B6201237B620323BB6261
:100F00000723FB6207F11C031946094800F0AEFAFB
:100F100000220021262000F00AFA262000F023FA01
:100F200000BF3037BD4680BD001001400038024090
:100F3000000002400044004080B400AF00BFBD4646
:100F40005DF8047B704780B400AFFEE780B400AF6B
:100F5000FEE780B400AFFEE780B400AFFEE780B4E8
:100F600000AF00BFBD465DF8047B704780B400AFA2
:100F700000BFBD465DF8047B704780B400AF00BF82
:100F8000BD465DF8047B704780B500AF00F0D4F833
:100F900000BF80BD80B500AF024801F0CBF900BFB3
:100FA00080BD00BFAC00002080B500AF024801F05A
:100FB000C1F900BF80BD00BFD404002080B584B05B
:100FC00000AF7860114B1B68002B02D10F4B104A09
:100FD0001A600E4B1B68FB600C4B1A687B6813444D
:100FE0006A46934207D901F0ABFF02460C23136017
:100FF0004FF0FF3306E0054B1A687B681344034A41
:101000001360FB6818461037BD4680BD980000206D
:101010002005002080B400AF084BD3F88830074A81
:1010200043F47003C2F88830044B4FF000629A60BA
:1010300000BFBD465DF8047B704700BF00ED00E0D7
:10104000DFF834D0002103E00C4B5B5843500431EF
:101050000B480C4B42189A42F6D30B4A02E000238D
:1010600042F8043B094B9A42F9D3FFF7D3FF01F052
:101070006DFFFFF71BFB704700800020843A0008DB
:10108000000000207C0000207C0000201C050020C7
:10109000FEE7000080B500AF0E4B1B680D4A43F41D
:1010A000007313600B4B1B680A4A43F480631360A0
:1010B000084B1B68074A43F480731360032000F059
:1010C0002BF9002000F008F8FFF760FE0023184617
:1010D00080BD00BF003C024080B582B000AF7860A8
:1010E000124B1A68124B1B7819464FF47A73B3FBF4
:1010F000F1F3B2FBF3F3184600F043F90346002B7B
:1011000001D001230EE07B680F2B0AD800227968FA
:101110004FF0FF3000F00BF9064A7B6813600023A4
:1011200000E0012318460837BD4680BD0C000020B2
:10113000140000201000002080B400AF064B1B7884
:101140001A46064B1B681344044A136000BFBD4691
:101150005DF8047B704700BF1400002014050020D8
:1011600080B400AF034B1B681846BD465DF8047B96
:10117000704700BF1405002080B485B000AF7860D0
:101180007B6803F00703FB600C4BDB68BB60BA684D
:101190004FF6FF031340BB60FB681A02BB681343A2
:1011A00043F0BF6343F40033BB60044ABB68D360C1
:1011B00000BF1437BD465DF8047B704700ED00E0CA
:1011C00080B400AF044BDB681B0A03F0070318462A
:1011D000BD465DF8047B704700ED00E080B483B04D
:1011E00000AF0346FB7197F90730002B0BDBFB794F
:1011F00003F01F02074997F907305B09012000FA45
:1012000002F241F8232000BF0C37BD465DF8047B95
:10121000704700BF00E100E080B483B000AF034638
:101220003960FB7197F90730002B0ADB3B68DAB2B3
:101230000C4997F907301201D2B20B4483F800230E
:101240000AE03B68DAB20849FB7903F00F03043B7C
:101250001201D2B20B441A7600BF0C37BD465DF8BE
:10126000047B704700E100E000ED00E080B489B04D
:1012700000AFF860B9607A60FB6803F00703FB61B8
:10128000FB69C3F10703042B28BF0423BB61FB697F
:101290000433062B02D9FB69033B00E000237B618A
:1012A0004FF0FF32BB6902FA03F3DA43BB681A401E
:1012B0007B699A404FF0FF317B6901FA03F3D94310
:1012C0007B680B40134318462437BD465DF8047B0A
:1012D0007047000080B582B000AF78607B68013B4A
:1012E000B3F1807F01D301230FE00A4A7B68013B01
:1012F00053600F214FF0FF30FFF78EFF054B0022A8
:101300009A60044B07221A60002318460837BD462E
:1013100080BD00BF10E000E080B582B000AF786013
:101320007868FFF729FF00BF0837BD4680BD80B54C
:1013300086B000AF0346B9607A60FB7300237B611F
:10134000FFF73EFF78617A68B9687869FFF78EFF2A
:10135000024697F90F3011461846FFF75DFF00BFB0
:101360001837BD4680BD80B582B000AF0346FB7123
:1013700097F907301846FFF731FF00BF0837BD4621
:1013800080BD80B582B000AF78607868FFF7A2FFBB
:10139000034618460837BD4680BD80B582B000AF11
:1013A00078607B68002B01D101230EE07B685B79BC
:1013B000DBB2002B05D17B6800221A717868FFF739
:1013C0000DFD7B6801225A71002318460837BD467F
:1013D00080BD80B487B000AFF860B9607A60002348
:1013E0003B61FB6802225A7100237B610AE07B6942
:1013F0009B00BA681A44FB681B6812681A607B6914
:1014000001337B617A697B689A42F0D3FB681B6881
:101410001B683B61FB6801225A713B6918461C3707
:10142000BD465DF8047B704780B483B000AF786040
:101430007B6893F83530DBB2022B04D07B688022C6
:101440005A6501230CE07B68052283F835207B6810
:101450001B681A687B681B6822F001021A6000236F
:1014600018460C37BD465DF8047B704780B489B0E0
:1014700000AF7860396000237B6100233B6100236B
:10148000BB610023FB614DE10122FB6902FA03F31A
:101490007B613B681B687A6913403B613A697B69F1
:1014A0009A4240F03C813B685B68012B0BD03B6863
:1014B0005B68022B07D03B685B68112B03D03B684D
:1014C0005B68122B30D17B689B68BB61FB695B005A
:1014D000032202FA03F3DB43BA691340BB613B68A2
:1014E000DA68FB695B0002FA03F3BA691343BB6174
:1014F0007B68BA699A607B685B68BB610122FB69A3
:1015000002FA03F3DB43BA691340BB613B685B68D3
:101510001B0903F00102FB6902FA03F3BA691343E2
:10152000BB617B68BA695A607B68DB68BB61FB6939
:101530005B00032202FA03F3DB43BA691340BB6189
:101540003B689A68FB695B0002FA03F3BA691343CC
:10155000BB617B68BA69DA603B685B68022B03D0C9
:101560003B685B68122B23D1FB69DA087B68083281
:1015700053F82230BB61FB6903F007039B000F2285
:1015800002FA03F3DB43BA691340BB613B681A6993
:10159000FB6903F007039B0002FA03F3BA691343E4
:1015A000BB61FB69DA087B680832B96943F822102D
:1015B0007B681B68BB61FB695B00032202FA03F3D3
:1015C000DB43BA691340BB613B685B6803F003020D
:1015D000FB695B0002FA03F3BA691343BB617B68E2
:1015E000BA691A603B685B6803F08053002B00F017
:1015F00096800023FB60504B5B6C4F4A43F4804362
:1016000053644D4B5B6C03F48043FB60FB684B4AB7
:10161000FB699B08023352F82330BB61FB6903F07E
:1016200003039B000F2202FA03F3DB43BA69134062
:10163000BB617B68424A93420DD07B68414A93422A
:1016400007D07B68404A934201D1022304E007237C
:1016500002E0012300E00023FA6902F00302920095
:101660009340BA691343BB613449FB699B08023359
:10167000BA6941F82320354B1B68BB613B69DB43EA
:10168000BA691340BB613B685B6803F48033002B8D
:1016900003D0BA693B691343BB612C4ABB69136031
:1016A0002A4B5B68BB613B69DB43BA691340BB6192
:1016B0003B685B6803F40033002B03D0BA693B69D5
:1016C0001343BB61214ABB695360204B9B68BB61DC
:1016D0003B69DB43BA691340BB613B685B6803F459
:1016E0008013002B03D0BA693B691343BB61174ACF
:1016F000BB699360154BDB68BB613B69DB43BA692F
:101700001340BB613B685B6803F40013002B03D0FC
:10171000BA693B691343BB610C4ABB69D360FB697F
:101720000133FB61FB690F2B7FF6AEAE00BF2437A0
:10173000BD465DF8047B7047003802400038014028
:10174000000002400004024000080240003C01404A
:1017500080B485B000AF78600B467B807B681A69E7
:101760007B881340002B02D00123FB7301E0002390
:10177000FB73FB7B18461437BD465DF8047B70474E
:1017800080B483B000AF78600B467B8013467B70DB
:101790007B78002B03D07A887B689A6103E07B8892
:1017A0001A047B689A6100BF0C37BD465DF8047B64
:1017B0007047000080B584B000AF786039607B6806
:1017C000002B01D10123CCE0684B1B6803F00F0311
:1017D0003A689A420CD9654B3A68D2B21A70634B98
:1017E0001B6803F00F033A689A4201D00123B8E066
:1017F0007B681B6803F00203002B20D07B681B680A
:1018000003F00403002B05D0594B9B68584A43F45E
:10181000E05393607B681B6803F00803002B05D03E
:10182000534B9B68524A43F460439360504B9B6810
:1018300023F0F0027B689B684D4913438B607B6803
:101840001B6803F00103002B44D07B685B68012B0D
:1018500007D1474B1B6803F40033002B19D1012338
:101860007FE07B685B68022B03D07B685B68032B9F
:1018700007D13F4B1B6803F00073002B09D10123F4
:101880006FE03B4B1B6803F00203002B01D10123E7
:1018900067E0374B9B6823F003027B685B68344941
:1018A00013438B60FFF75CFCF8600AE0FFF758FC1D
:1018B0000246FB68D31A41F28832934201D90323CE
:1018C0004FE02B4B9B6803F00C027B685B689B002E
:1018D0009A42EBD1254B1B6803F00F033A689A42FA
:1018E0000CD2224B3A68D2B21A70204B1B6803F01C
:1018F0000F033A689A4201D0012332E07B681B68EB
:1019000003F00403002B08D0194B9B6823F4E0522A
:101910007B68DB68164913438B607B681B6803F0A8
:101920000803002B09D0124B9B6823F460427B68AC
:101930001B69DB000E4913438B6000F021F8014660
:101940000B4B9B681B0903F00F030A4AD35C21FA77
:1019500003F3094A1360094B1B681846FFF7BCFBE9
:10196000002318461037BD4680BD00BF003C024032
:1019700000380240283A00080C0000201000002027
:10198000F0B585B000AF00237B600023FB6000232F
:101990003B600023BB60634B9B6803F00C03042B8C
:1019A00007D0082B08D0002B40F0B4805E4BBB6002
:1019B000B3E05E4BBB60B0E05A4B5B6803F03F03A3
:1019C0007B60584B5B6803F48003002B4AD0554B77
:1019D0005B689B094FF0000440F2FF114FF00002DA
:1019E00003EA010504EA0206294632464FF00003E5
:1019F0004FF00004540144EAD1644B0119462246D9
:101A0000491B62EB06024FF000034FF00004940103
:101A100044EA91648B015B1A64EB02044FF000010D
:101A20004FF00002E20042EA5372D9000B4614461E
:101A30005B1944EB06044FF000014FF00002620214
:101A400042EAD35259020B461446184621467B6897
:101A50004FF000041A462346FEF732FC03460C46BC
:101A6000FB6049E02F4B5B689B094FF0000440F29C
:101A7000FF114FF0000203EA010504EA02062946BD
:101A800032464FF000034FF00004540144EAD164A1
:101A90004B0119462246491B62EB06024FF0000338
:101AA0004FF00004940144EA91648B015B1A64EBEB
:101AB00002044FF000014FF00002E20042EA5372CC
:101AC000D9000B4614465B1944EB06044FF00001A5
:101AD0004FF00002A20242EA935299020B461446CA
:101AE000184621467B684FF000041A462346FEF74D
:101AF000E7FB03460C46FB600A4B5B681B0C03F0DC
:101B0000030301335B003B60FA683B68B2FBF3F30D
:101B1000BB6002E0044BBB6000BFBB6818461437D3
:101B2000BD46F0BD003802400024F40000127A00E7
:101B300080B400AF034B1B681846BD465DF8047BBC
:101B4000704700BF0C00002080B500AFFFF7F0FF2A
:101B50000146054B9B689B0A03F00703034AD35CCD
:101B600021FA03F3184680BD00380240383A0008D5
:101B700080B500AFFFF7DCFF0146054B9B685B0BB0
:101B800003F00703034AD35C21FA03F3184680BD30
:101B900000380240383A000880B586B000AF78605F
:101BA00000233B617B681B6803F00103002B75D0A9
:101BB000A24B9B6803F00C03042B0CD09F4B9B683B
:101BC00003F00C03082B12D19C4B5B6803F48003D9
:101BD000B3F5800F0BD1994B1B6803F40033002B36
:101BE0005BD07B685B68002B57D101230BE27B68DD
:101BF0005B68B3F5803F06D1904B1B688F4A43F476
:101C0000803313601DE07B685B68B3F5A02F0CD1B7
:101C10008A4B1B68894A43F480231360874B1B68F7
:101C2000864A43F4803313600BE0844B1B68834A7D
:101C300023F480331360814B1B68804A23F4802394
:101C400013607B685B68002B13D0FFF789FA38615B
:101C500008E0FFF785FA02463B69D31A642B01D9E5
:101C60000323D0E1754B1B6803F40033002BF0D045
:101C700014E0FFF775FA386108E0FFF771FA0246E1
:101C80003B69D31A642B01D90323BCE16B4B1B685E
:101C900003F40033002BF0D100E000BF7B681B6829
:101CA00003F00203002B63D0644B9B6803F00C032A
:101CB000002B0BD0614B9B6803F00C03082B1CD14D
:101CC0005E4B5B6803F48003002B16D15B4B1B68F3
:101CD00003F00203002B05D07B68DB68012B01D0E9
:101CE000012390E1554B1B6823F0F8027B681B69C8
:101CF000DB00524913430B603AE07B68DB68002B42
:101D000020D04F4B01221A60FFF72AFA386108E011
:101D1000FFF726FA02463B69D31A022B01D90323A7
:101D200071E1464B1B6803F00203002BF0D0434BDC
:101D30001B6823F0F8027B681B69DB003F491343F3
:101D40000B6015E03E4B00221A60FFF709FA38617C
:101D500008E0FFF705FA02463B69D31A022B01D9C6
:101D6000032350E1354B1B6803F00203002BF0D135
:101D70007B681B6803F00803002B30D07B685B692D
:101D8000002B16D02F4B01221A60FFF7E9F93861BA
:101D900008E0FFF7E5F902463B69D31A022B01D9A7
:101DA000032330E1254B5B6F03F00203002BF0D0DF
:101DB00015E0244B00221A60FFF7D2F9386108E0E1
:101DC000FFF7CEF902463B69D31A022B01D9032350
:101DD00019E11A4B5B6F03F00203002BF0D17B6813
:101DE0001B6803F00403002B00F09F800023FB75A9
:101DF000124B1B6C03F08053002B0FD10023FB60B0
:101E00000E4B1B6C0D4A43F0805313640B4B1B6C41
:101E100003F08053FB60FB680123FB750A4B1B68D2
:101E200003F48073002B20D1074B1B68064A43F450
:101E300080731360FFF794F9386110E000380240B6
:101E400000004742800E474200700040FFF788F9CB
:101E500002463B69D31A022B01D90323D3E06C4B12
:101E60001B6803F48073002BF0D07B689B68012B08
:101E700006D1684B1B6F674A43F0010313671CE0F0
:101E80007B689B68052B0CD1624B1B6F614A43F04A
:101E9000040313675F4B1B6F5E4A43F00103136734
:101EA0000BE05C4B1B6F5B4A23F001031367594B3C
:101EB0001B6F584A23F0040313677B689B68002B51
:101EC00015D0FFF74DF938610AE0FFF749F90246EE
:101ED0003B69D31A41F28832934201D9032392E03D
:101EE0004C4B1B6F03F00203002BEED014E0FFF706
:101EF00037F938610AE0FFF733F902463B69D31A34
:101F000041F28832934201D903237CE0414B1B6F9D
:101F100003F00203002BEED1FB7D012B05D13D4BDD
:101F20001B6C3C4A23F0805313647B689B69002B35
:101F300068D0384B9B6803F00C03082B60D07B689B
:101F40009B69022B45D1344B00221A60FFF708F938
:101F5000386108E0FFF704F902463B69D31A022B07
:101F600001D903234FE02B4B1B6803F00073002BB8
:101F7000F0D17B68DA697B681B6A1A437B685B6A0D
:101F80009B011A437B689B6A5B08013B1B041A4355
:101F90007B68DB6A1B061A437B681B6B1B071D49AA
:101FA00013434B601C4B01221A60FFF7D9F83861CC
:101FB00008E0FFF7D5F802463B69D31A022B01D996
:101FC000032320E0134B1B6803F00073002BF0D0B9
:101FD00018E0114B00221A60FFF7C2F8386108E0E0
:101FE000FFF7BEF802463B69D31A022B01D903233F
:101FF00009E0084B1B6803F00073002BF0D101E0EF
:10200000012300E0002318461837BD4680BD00BFFD
:1020100000700040003802406000474280B582B046
:1020200000AF78607B68002B01D101233FE07B6823
:1020300093F83930DBB2002B06D17B68002283F89D
:1020400038207868FEF7ECFE7B68242283F839207C
:102050007B681B68DA687B681B6822F40052DA60D0
:10206000786800F0F1FB7B681B681A697B681B6865
:1020700022F490421A617B681B685A697B681B686E
:1020800022F02A025A617B681B68DA687B681B6849
:1020900042F40052DA607B680022DA637B68202217
:1020A00083F839207B68202283F83A2000231846E1
:1020B0000837BD4680BD80B588B002AFF860B96012
:1020C0003B601346FB8000237B61FB6893F839304B
:1020D000DBB2202B40F08380BB68002B02D0FB8852
:1020E000002B01D101237BE0FB6893F83830012BF2
:1020F00001D1022374E0FB68012283F83820FB68D9
:102100000022DA63FB68212283F83920FFF728F8E0
:102110007861FB68FA889A84FB68FA88DA84FB683D
:10212000002283F8382042E0FB68DB8C9BB2013B45
:102130009AB2FB68DA84FB689B68B3F5805F22D1B2
:102140003B6800937B6900228021F86800F010FA58
:102150000346002B01D0032342E0BB683B613B698F
:102160001B881A46FB681B68C2F308025A60FB68AA
:102170001B69002B03D1BB680233BB6017E0BB684F
:102180000133BB6013E03B6800937B690022802130
:10219000F86800F0EDF90346002B01D003231FE09F
:1021A000BB685A1CBA601A78FB681B685A60FB68E7
:1021B000DB8C9BB2002BB7D13B6800937B6900227C
:1021C0004021F86800F0D4F90346002B01D0032326
:1021D00006E0FB68202283F83920002300E0022378
:1021E00018461837BD4680BD80B588B002AFF8608C
:1021F000B9603B601346FB8000237B61FB6893F86A
:102200003A30DBB2202B40F09080BB68002B02D02C
:10221000FB88002B01D1012388E0FB6893F838305C
:10222000012B01D1022381E0FB68012283F83820D1
:10223000FB680022DA63FB68222283F83A20FEF76B
:102240008FFF7861FB68FA889A85FB68FA88DA85DF
:10225000FB68002283F838205CE0FB68DB8D9BB2D2
:10226000013B9AB2FB68DA85FB689B68B3F5805F37
:102270002BD13B6800937B6900222021F86800F095
:1022800077F90346002B01D003234FE0BB683B6185
:10229000FB681B69002B0CD1FB681B685B689BB259
:1022A000C3F308039AB23B691A80BB680233BB6070
:1022B00030E0FB681B685B689BB2DBB29AB23B699B
:1022C0001A80BB680133BB6024E03B6800937B69E4
:1022D00000222021F86800F04BF90346002B01D0C2
:1022E000032323E0FB681B69002B08D1FB681B68F4
:1022F0005968BB685A1CBA60CAB21A700AE0FB6817
:102300001B685B68DAB2BB68591CB96002F07F02D7
:10231000D2B21A70FB68DB8D9BB2002B9DD1FB689B
:10232000202283F83A20002300E0022318461837C1
:10233000BD4680BD80B588B000AF78607B681B6803
:102340001B68FB617B681B68DB68BB617B681B6883
:102350005B697B6100233B610023FB60FB6903F049
:102360000F033B613B69002B0DD1FB6903F0200398
:10237000002B08D0BB6903F02003002B03D0786842
:1023800000F0E0F9D1E03B69002B00F0B0807B6900
:1023900003F00103002B05D1BB6903F49073002BFC
:1023A00000F0A580FB6903F00103002B0AD0BB6994
:1023B00003F48073002B05D07B68DB6B43F00102D4
:1023C0007B68DA63FB6903F00403002B0AD07B69A6
:1023D00003F00103002B05D07B68DB6B43F00202A6
:1023E0007B68DA63FB6903F00203002B0AD07B6988
:1023F00003F00103002B05D07B68DB6B43F0040284
:102400007B68DA63FB6903F00803002B0FD0BB691C
:1024100003F02003002B04D17B6903F00103002BA0
:1024200005D07B68DB6B43F008027B68DA637B686E
:10243000DB6B002B78D0FB6903F02003002B07D067
:10244000BB6903F02003002B02D0786800F07AF912
:102450007B681B685B6903F04003402B0CBF0123C2
:102460000023DBB2FB607B68DB6B03F00803002B0F
:1024700002D1FB68002B31D0786800F0C3F87B688C
:102480001B685B6903F04003402B23D17B681B680A
:102490005A697B681B6822F040025A617B685B6B5B
:1024A000002B13D07B685B6B214A1A657B685B6BE2
:1024B0001846FEF7B9FF0346002B16D07B685B6B0E
:1024C0001B6D7A68526B104698470EE0786800F0F2
:1024D00045F80AE0786800F041F806E0786800F016
:1024E0003DF87B680022DA631EE000BF1CE0FB6958
:1024F00003F08003002B08D0BB6903F08003002B9E
:1025000003D0786800F0B0F80FE0FB6903F04003F7
:10251000002B0AD0BB6903F04003002B05D078687C
:1025200000F0F8F800BF00E000BF2037BD4680BDD6
:102530004126000880B483B000AF786000BF0C373C
:10254000BD465DF8047B704780B483B000AF78600F
:1025500000BF0C37BD465DF8047B704780B483B084
:1025600000AF786000BF0C37BD465DF8047B704754
:1025700080B584B000AFF860B9603B601346FB7172
:102580002CE0BB69B3F1FF3F28D0BB69002B07D01B
:10259000FEF7E6FD02463B68D31ABA699A421DD29D
:1025A000FB681B68DA68FB681B6822F4D072DA608B
:1025B000FB681B685A69FB681B6822F001025A61BC
:1025C000FB68202283F83920FB68202283F83A2018
:1025D000FB68002283F8382003230FE0FB681B68A8
:1025E0001A68BB681340BA689A420CBF01230023E3
:1025F000DBB21A46FB799A42C3D000231846103743
:10260000BD4680BD80B483B000AF78607B681B6836
:10261000DA687B681B6822F49072DA607B681B685A
:102620005A697B681B6822F001025A617B6820228C
:1026300083F83A2000BF0C37BD465DF8047B704735
:1026400080B584B000AF78607B689B6BFB60FB68F3
:102650000022DA85FB680022DA84F868FFF77EFF43
:1026600000BF1037BD4680BD80B485B000AF786034
:102670007B6893F83930DBB2212B44D17B689B68AF
:10268000B3F5805F1AD17B681B6AFB60FB681B880F
:102690001A467B681B68C2F308025A607B681B6994
:1026A000002B05D17B681B6A9A1C7B681A620EE0BE
:1026B0007B681B6A5A1C7B681A6208E07B681B6A8D
:1026C000591C7A6811621A787B681B685A607B68AB
:1026D000DB8C9BB2013B9BB27A681946D184002BFC
:1026E0000FD17B681B68DA687B681B6822F0800268
:1026F000DA607B681B68DA687B681B6842F040021E
:10270000DA60002300E0022318461437BD465DF866
:10271000047B704780B582B000AF78607B681B682F
:10272000DA687B681B6822F04002DA607B6820224E
:1027300083F839207868FFF7FDFE00231846083734
:10274000BD4680BD80B584B000AF78607B6893F8EB
:102750003A30DBB2222B71D17B689B68B3F5805F86
:1027600023D17B689B6AFB607B681B69002B0ED1C1
:102770007B681B685B689BB2C3F308039AB2FB6873
:102780001A807B689B6A9A1C7B689A6229E07B6846
:102790001B685B689BB2DBB29AB2FB681A807B68ED
:1027A0009B6A5A1C7B689A621BE07B681B69002B42
:1027B0000AD17B681B6858687B689B6A591C7A68D9
:1027C0009162C2B21A700CE07B681B685B68DAB277
:1027D0007B689B6A581C7968886202F07F02D2B2DB
:1027E0001A707B68DB8D9BB2013B9BB27A681946FD
:1027F000D185002B20D17B681B68DA687B681B6859
:1028000022F02002DA607B681B68DA687B681B684C
:1028100022F48072DA607B681B685A697B681B68E7
:1028200022F001025A617B68202283F83A207868FE
:10283000FFF78AFE002302E0002300E0022318468F
:102840001037BD4680BD00002DE9F04F85B000AFC8
:1028500078607B681B681B6923F440517B68DA68E9
:102860007B681B680A431A617B689A687B681B69EE
:102870001A437B685B691A437B68DB691343FB601F
:102880007B681B68DB6823F4164323F00C037A682B
:102890001268F9680B43D3607B681B685B6923F49B
:1028A00040717B689A697B681B680A435A617B6840
:1028B000DB69B3F5004F40F08B817B681B68C14A30
:1028C000934205D07B681B68BF4A934240F0BD80AD
:1028D000FFF74EF9B860BB681D464FF00006A846EA
:1028E000B14618EB080349EB09049846A14618EBDA
:1028F000050849EB06094FF000014FF000024FEACE
:10290000C90242EA58724FEAC8018846914618EB5C
:10291000050049EB06017B685B681D464FF0000629
:102920006B1946EB06041A462346FDF7C9FC03461D
:102930000C461A46A54BA3FB02235B094FEA03187A
:10294000BB681D464FF00006A946B24619EB0903C5
:102950004AEB0A049946A24619EB05094AEB060A16
:102960004FF000014FF000024FEACA0242EA5972EA
:102970004FEAC9018946924619EB05004AEB060168
:102980007B685B681D464FF000066B1946EB06043A
:102990001A462346FDF794FC03460C461A468B4B19
:1029A000A3FB02135B09642101FB03F3D31ADB00D1
:1029B0003233864AA2FB03235B095B0003F4F873FE
:1029C0009844BB681D464FF00006A946B24619EB75
:1029D00009034AEB0A049946A24619EB05094AEB9A
:1029E000060A4FF000014FF000024FEACA0242EA25
:1029F00059724FEAC9018946924619EB05004AEB24
:102A000006017B685B681D464FF000066B1946EBBC
:102A100006041A462346FDF753FC03460C461A46A5
:102A20006A4BA3FB02135B09642101FB03F3D31A76
:102A3000DB003233654AA2FB03235B0903F0070284
:102A40007B681B6842449A606FE2FFF77DF8B860CC
:102A5000BB681D464FF00006A846B14618EB0803B8
:102A600049EB09049846A14618EB050849EB06090D
:102A70004FF000014FF000024FEAC90242EA5872DB
:102A80004FEAC8018846914618EB050049EB06015C
:102A90007B685B681D464FF000066B1946EB060429
:102AA0001A462346FDF70CFC03460C461A46474BD4
:102AB000A3FB02235B094FEA0318BB681D464FF0D6
:102AC0000006A946B24619EB09034AEB0A049946E7
:102AD000A24619EB05094AEB060A4FF000014FF038
:102AE00000024FEACA0242EA59724FEAC901894616
:102AF000924619EB05004AEB06017B685B681D46B0
:102B00004FF000066B1946EB06041A462346FDF704
:102B1000D7FB03460C461A462C4BA3FB02135B095A
:102B2000642101FB03F3D31ADB003233274AA2FBF3
:102B300003235B095B0003F4F8739844BB681D46EC
:102B40004FF00006A946B24619EB09034AEB0A0406
:102B50009946A24619EB05094AEB060A4FF0000117
:102B60004FF000024FEACA0242EA59724FEAC90125
:102B70008946924619EB05004AEB06017B685B68C3
:102B80001D464FF000066B1946EB06041A46234615
:102B9000FDF796FB03460C461A460C4BA3FB0213AB
:102BA0005B09642101FB03F3D31ADB003233074ACC
:102BB000A2FB03235B0903F007027B681B68424406
:102BC0009A60B2E100100140001401401F85EB51F2
:102BD0007B681B68D74A934205D07B681B68D64A3E
:102BE000934240F0D180FEF7C3FFB860BB689A46BD
:102BF0004FF0000BD046D94618EB080349EB090407
:102C00009846A14618EB0A0849EB0B094FF0000162
:102C10004FF000024FEAC90242EA58724FEAC80177
:102C2000884691461AEB08054BEB09067B685B6802
:102C300019464FF000024FF000034FF000049400DB
:102C400044EA91748B001A46234628463146FDF724
:102C500037FB03460C461A46B84BA3FB02235B091D
:102C60004FEA0318BB689B464FF0000CD946E2467A
:102C700019EB09034AEB0A049946A24619EB0B0922
:102C80004AEB0C0A4FF000014FF000024FEACA0273
:102C900042EA59724FEAC901894692461BEB09057F
:102CA0004CEB0A067B685B6819464FF000024FF058
:102CB00000034FF00004940044EA91748B001A461C
:102CC000234628463146FDF7FBFA03460C461A46D2
:102CD0009A4BA3FB02135B09642101FB03F3D31A94
:102CE0001B013233954AA2FB03235B0903F0F00377
:102CF0009844BB689B464FF0000CD946E24619EB5E
:102D000009034AEB0A049946A24619EB0B094AEB60
:102D10000C0A4FF000014FF000024FEACA0242EAEB
:102D200059724FEAC901894692461BEB09054CEBE3
:102D30000A067B685B6819464FF000024FF00003FB
:102D40004FF00004940044EA91748B001A46234625
:102D500028463146FDF7B4FA03460C461A46774B2F
:102D6000A3FB02135B09642101FB03F3D31A1B01CC
:102D70003233724AA2FB03235B0903F00F027B6824
:102D80001B6842449A60D0E0FEF7DEFEB860BB6884
:102D90009A464FF0000BD046D94618EB080349EB92
:102DA00009049846A14618EB0A0849EB0B094FF0B5
:102DB00000014FF000024FEAC90242EA58724FEA9E
:102DC000C801884691461AEB08054BEB09067B685B
:102DD0005B6819464FF000024FF000034FF000040B
:102DE000940044EA91748B001A46234628463146E3
:102DF000FDF766FA03460C461A46504BA3FB022326
:102E00005B094FEA0318BB689B464FF0000CD9469C
:102E1000E24619EB09034AEB0A049946A24619EB6C
:102E20000B094AEB0C0A4FF000014FF000024FEA89
:102E3000CA0242EA59724FEAC901894692461BEB1F
:102E400009054CEB0A067B685B6819464FF00002E7
:102E50004FF000034FF00004940044EA91748B009B
:102E60001A46234628463146FDF72AFA03460C4601
:102E70001A46324BA3FB02135B09642101FB03F3E7
:102E8000D31A1B0132332D4AA2FB03235B0903F043
:102E9000F0039844BB689B464FF0000CD946E246CD
:102EA00019EB09034AEB0A049946A24619EB0B09F0
:102EB0004AEB0C0A4FF000014FF000024FEACA0241
:102EC00042EA59724FEAC901894692461BEB09054D
:102ED0004CEB0A067B685B6819464FF000024FF026
:102EE00000034FF00004940044EA91748B001A46EA
:102EF000234628463146FDF7E3F903460C461A46B9
:102F00000E4BA3FB02135B09642101FB03F3D31AED
:102F10001B013233094AA2FB03235B0903F00F02B2
:102F20007B681B6842449A60FFE700BF1437BD46C8
:102F3000BDE8F08F00100140001401401F85EB51E7
:102F4000014B1868704700BF1800002070B50D4E87
:102F50000D4CA41BA4100025A54209D10B4E0C4C0E
:102F600000F026FCA41BA4100025A54205D170BDCD
:102F700056F8253098470135EEE756F82530984742
:102F80000135F2E77C3A00087C3A00087C3A0008F8
:102F9000803A000802440346934200D1704703F888
:102FA000011BF9E700B59BB0009104916FF000415F
:102FB0000591029105490391694600F06DF8009B67
:102FC00000221A701BB05DF804FB00BF0802FFFF6F
:102FD00013460A46014602480068FFF7E3BF00BFF8
:102FE000180000202DE9F0478E689E4282460C466C
:102FF0009046994637D88A8912F4906F31D0256867
:1030000009696F1A6569022305EB450595FBF3F520
:1030100009F101033B449D4238BF1D46530530D59D
:10302000294600F02BFB064650B90C23CAF80030A5
:10303000A38943F04003A3814FF0FF30BDE8F08740
:103040003A46216900F0A8FAA38923F4906343F07B
:103050008003A381266165613E44ED1B2660A56067
:103060004E464E4500D94E4632464146206800F055
:103070009EFAA3689B1BA36023681E442660002061
:10308000DCE72A4600F054FB06460028E2D121691D
:10309000504600F0A5FAC8E72DE9F04F1D468B8990
:1030A0001F069DB080460C4616460FD50B696BB9BE
:1030B000402100F0E3FA2060206128B90C23C8F811
:1030C00000304FF0FF30C8E04023636100230993D4
:1030D00020238DF8293030238DF82A3003954FF0C6
:1030E000010B37463D4615F8013B0BB1252B3ED170
:1030F000B7EB060A0BD05346324621464046FFF74F
:1031000071FF013000F0A480099B534409933B7880
:10311000002B00F09D8000234FF0FF32CDE9052306
:10312000049307938DF853301A932F46052217F80E
:10313000011B5048FDF774F8049BD0B9D90644BF71
:1031400020228DF853201A0744BF2B228DF85320DC
:103150002A782A2A15D0079A2F4600200A253946B0
:1031600011F8013B303B092B4DD9B8B10FE02F4688
:10317000B8E7404A801A0BFA00F0184304903D4625
:10318000D3E7039A111D12680391002A01DB07920D
:1031900004E0524243F00203079204933B782E2B43
:1031A0000CD17B782A2B33D1039B1A1D1B68039209
:1031B000002BB8BF4FF0FF33023705932E4D3978FF
:1031C00003222846FDF72CF838B14023401B03FAB0
:1031D00000F0049B034301370493397827488DF8A6
:1031E000281006227E1CFDF71BF8002838D0244B3F
:1031F00013BB039B073323F0070308330393099B97
:103200004B4409936DE705FB023201200F46A6E708
:1032100000230137059319460A25384610F8012B7B
:10322000303A092A03D9002BC8D00591C6E705FB1F
:10323000012101230746F0E703AB00932246114B1F
:1032400004A94046AFF30080B0F1FF3F8146D6D1DC
:10325000A3895B063FF535AF09981DB0BDE8F08F37
:1032600003AB00932246074B04A9404600F082F8C6
:10327000EAE700BF403A0008463A00084A3A000828
:1032800000000000E52F00082DE9F04791461F4699
:103290008A680B69DDF820809342B8BF1346C9F8ED
:1032A000003091F8432006460C4612B10133C9F8AC
:1032B00000302368990642BFD9F800300233C9F8BC
:1032C0000030256815F0060507D104F1190AE368F6
:1032D000D9F800209B1AAB4228DC94F843302268CE
:1032E000003318BF012392062DD404F1430239465E
:1032F0003046C047013020D02368E568D9F8002067
:1033000003F00603042B08BFAD1AA36822690CBFA3
:1033100025EAE57500259342C4BF9B1AED184FF0CE
:1033200000091A344D451AD1002008E00123524605
:1033300039463046C047013003D14FF0FF30BDE879
:10334000F0870135C3E7E1185A1C302081F84300AB
:10335000224494F8451082F843100233C5E7012354
:10336000224639463046C0470130E6D009F101090E
:10337000D8E700002DE9F04301F1430C0C46097E2B
:1033800085B06E291746064698460C9A00F0B38021
:1033900022D8632936D00AD8002900F0B9805829EC
:1033A00000F0838004F1420584F8421032E0642981
:1033B00001D06929F6D120681368050603F10401DC
:1033C0002AD51B681160002B03DA2D225B4284F89A
:1033D00043206F480A2239E0732900F09D8008D805
:1033E0006F2920D07029DDD1236843F020032360AA
:1033F00003E0752917D07829D4D1782384F8453093
:10340000644855E01368191D1B68116004F14205FA
:1034100084F8423001238CE01B68116010F0400FEB
:1034200018BF1BB2CFE713682568181D1060280667
:1034300001D51B6802E06806FBD51B8854486F293C
:1034400014BF0A220822002184F843106568A56091
:10345000002DC0F29580216821F004012160002B2D
:103460003DD1002D40F08E806546082A0BD123689F
:10347000DB0708D5236962689A42DEBF302305F86E
:10348000013C05F1FF35ACEB05032361CDF800806D
:103490003B4603AA21463046FFF7F6FE01304DD1E8
:1034A0004FF0FF3005B0BDE8F083394884F845108F
:1034B000136821681D1D1B6815600A060BD5CA0715
:1034C00044BF41F0200121601BB9226822F0200294
:1034D00022601022B7E74D0648BF9BB2EFE7654672
:1034E000B3FBF2F102FB1133C35C05F8013D0B465F
:1034F0000029F5D1B9E7136825686169181D1060C6
:1035000028061B6801D5196002E06A06FBD5198000
:10351000002323616546B9E71368191D11601D6812
:10352000626800212846FCF77BFE08B1401B606002
:1035300063682361002384F84330A7E723692A46A0
:1035400039463046C0470130AAD023689B0713D4C0
:10355000E068039B9842B8BF1846A3E701234A4698
:1035600039463046C04701309AD00135E368039AA6
:103570009B1AAB42F2DCEBE7002504F11909F5E7F1
:10358000002BACD1037884F8423004F142056CE79B
:10359000513A0008623A000810B5431E0A449142AD
:1035A00000D110BD11F8014B03F8014FF7E7884235
:1035B00010B501EB020307D8421E99420AD011F858
:1035C000014B02F8014FF8E78342F5D98118D21A6E
:1035D000D34200D110BD13F8014D01F8014DF7E7BA
:1035E00038B50546002945D051F8043C0C1F002B86
:1035F000B8BFE41800F0D2F81F4A1368104633B978
:10360000636014602846BDE8384000F0C8B8A342A3
:103610000CD921686218934204BF1A685B68636022
:1036200004BF521822600460ECE713465A680AB1DE
:10363000A242FAD919685818A0420BD12068014457
:10364000581882421960DDD1106852685A600144EE
:103650001960D7E702D90C232B60D3E72068211823
:103660008A4204BF11685268626004BF0918216071
:103670005C60C7E738BD00BF9C00002070B5CD1C62
:1036800025F0030508350C2D38BF0C25002D064606
:1036900001DBA94203D90C233360002070BD00F088
:1036A0007DF8214A1468214691B9204C23681BB942
:1036B000304600F063F820602946304600F05EF89E
:1036C000431C24D10C233360304600F068F8E4E753
:1036D0000B685B1B18D40B2B0FD90B60CD50CC188B
:1036E000304600F05CF804F10B00231D20F00700C9
:1036F000C31AD3D05A42E250D0E78C424B6816BF6F
:10370000636013600C46EBE70C464968CCE7C41CC9
:1037100024F00304A04205D0211A304600F02EF810
:103720000130CFD02560DBE79C000020A000002006
:10373000F8B5074614460E4621B91146BDE8F840D3
:10374000FFF79CBF22B9FFF74BFF25462846F8BD7F
:1037500000F026F8A0420FD221463846FFF78EFF30
:1037600005460028F2D031462246FFF715FF3146C4
:103770003846FFF735FFE9E73546E7E738B5064C49
:103780000023054608462360FDF718FC431C02D1C0
:10379000236803B12B6038BD1805002070477047BF
:1037A00051F8043C181F002BBCBF0B58C0187047C1
:1037B000F8B500BFF8BC08BC9E467047F8B500BF1E
:0837C000F8BC08BC9E467047EE
:1037C8000D0A64656275673D3D3E426F6F746C6FAC
:1037D80061646572204A756D7020746F20426F6F46
:1037E800746C6F6164657220436F64653A00000011
:1037F8000D0A64656275673D3D3E426F6F746C6F7C
:1038080061646572204A756D7020746F2055736508
:103818007220436F64653A000D0A64656275673DFE
:103828003D3E4D53502056616C7565203A20252346
:10383800780000000D0A64656275673D3D3E2041D1
:1038480070702072657365742068616E646C65724F
:103858002061646472203A20252378000D0A426FA3
:103868006F746C6F616465722044656275673A2095
:1038780048454C4C4F212046726F6D20426F6F7443
:103888006C6F61646572210D0A0000000D0A4465C1
:103898006275673D3D3E20426F6F746C6F61646571
:1038A8007220636F64652069732052756E6E696E4D
:1038B800670000000D0A44656275673D3D3E20556E
:1038C80053455220636F64652069732052756E6E8C
:1038D800696E67000D0A44656275673D3D3E204983
:1038E8006E76616C696420636F6D6D616E642052E1
:1038F800656365697665642066726F6D20736572AD
:1039080069616C20686F73742E2E2E2E2E000000B5
:103918000D0A64656275673D3D3E20426F6F746CA9
:103928006F616465722068616E646C652067657498
:1039380076657220636D64000D0A64656275673D83
:103948003D3E20636865636B73756D2073756363B3
:1039580065737320212100000D0A64656275673D57
:103968003D3E20424C5F564552203A3A202564207D
:10397800252378000D0A64656275673D3D3E204346
:103988006865636B53756D204661696C2021210061
:103998000D0A64656275673D3D3E20426F6F746C29
:1039A8006F616465722048616E646C652047657458
:1039B8002048656C700000000D0A64656275673DFB
:1039C8003D3E20436865636B53756D205375636393
:1039D8006573732021210A000D0A64656275673DCD
:1039E8003D3E20426F6F746C6F6164657220486160
:1039F8006E646C65204765742043494400000000EC
:103A08000D0A64656275673D3D3E204D435520496A
:103A180044203A3A202564202523782021210000DB
:103A28000000000000000000010203040607080966
:103A38000000000001020304232D302B2000686CD5
:103A48004C006566674546470030313233343536B9
:103A580037383941424344454600303132333435F2
:0C3A68003637383961626364656600001F
:083A74007CC8FF7F0100000087
:043A7C00F501000848
:043A8000D101000868
:103A84005152535455565758595A5B000024F40068
:103A940010000000010000001C00002000000000D5
:103AA4000000000000000000000000000000000012
:103AB4000000000000000000000000000000000002
:103AC40000000000000000000000000000000000F2
:103AD40000000000000000000000000000000000E2
:103AE40000000000000000000000000000000000D2
:0C3AF400000000000000000000000000C6
:04000005080010419E
:00000001FF
